:08000000803102288731FD2F39
:100C5000F100710886312D260800F0004E010F1EAC
:100C60002E2E700842019A0008008631DF26863158
:100C700086313E2686318631482608006230510191
:100C80008D008F01910102309300900192010800C4
:100C9000083042019F0090309D0024309E001930A2
:100CA0009B009C0108007E013814410194019501CC
:100CB00096019901971353019013941341019C01DC
:100CC00098019A01843093000800863135268631D8
:100CD00004304001B4003D30890B6C2EB40B6C2EF7
:100CE00000328631B12686310A304001B50000302D
:100CF000B6000E30A0008830A1003608A3003508E9
:100D0000A200873146278631682E780879040319B6
:100D1000AC2EFD01FD0AF91B972E0130F835F90DB7
:100D2000890B8E2E0130FC007C08FD078B2E790884
:100D30007B02031D9D2E78087A02031CA32E7808DF
:100D4000FA027908FB3B0130F936F80C890BA42E26
:100D50000130FD02031D972E7B08F9007A08F80088
:100D60000800863153268631410113140830890B5F
:100D7000B72E000041010D084001AE00AF01063062
:100D8000AE35AF0D890BC02E2E08B2002F08B30070
:100D900041010C084001AE00AF012E08B0002F0841
:100DA000B100410113100A304001A0008830A100B9
:100DB0003308A3003208A20087314627080040010B
:100DC0009701960198017E01B901C401CF01FF305E
:100DD000B800FF30C3007F30CE00FF3040019200EA
:100DE000BF309300FF30910000308B1B0130F000CA
:100DF0008B1355307D018F00AA308F000F101730F4
:100E0000CB0010307E01A6000930A30055307D01D3
:100E10008F00AA308F000F14701C102F8B17080042
:100E20008B130800F501F601700871040319412FB6
:100E3000F701F70AF11B262F0130F035F10D890B70
:100E40001D2F0130F4007408F7071A2F0130F53513
:100E5000F60D890B272F71087302031D312F7008BF
:100E60007202031C382F7008F2027108F33B7514EC
:100E70000130F136F00C890B392F0130F702031DD8
:100E8000262F7608F1007508F00008002230400196
:100E9000A4002408A80040012108A5002008A400FF
:100EA000A00A0319A10A2408840025088500000867
:100EB000A6002608AD002D080319080025302D06D0
:100EC0000319672F2D088631282687314B2F4001C3
:100ED000A9012108A5002008A400A00A0319A10A5D
:100EE00024088400250885000008AD00003A031995
:100EF000FC2F643A0319802F0D3A0319802F4B2FD2
:100F0000280886008701403FAB00413FAC0002301B
:100F1000A4002408A807AC1F962F0330A4002408BF
:100F2000A904AB09AC09AB0A0319AC0AAD01AD0ABF
:100F300005302D060319BB2F2D08A400A501A435EB
:100F4000A50D0030240784008830253D8500003F32
:100F5000A600013FA70027082C02031DB12F260879
:100F60002B02031CBB2F0130A4002408AD07053061
:100F70002D06031D9C2F290803390319C32F2D307B
:100F800086312826873140012D08A4002408AA00B4
:100F9000FF304001A4002408AA072A0A03194B2F96
:100FA0000A30F8000030F9002A08A400A501A43591
:100FB000A50D0030240784008830253D8500003FC2
:100FC000F000013FF1002C08F3002B08F2008731FC
:100FD000122787317108FB007008FA0086318526D8
:100FE00087317808303E4001A6002608AD002D0864
:100FF000863128268731C82F080040018631652EAA
:10100000013400340A34003464340034E8340334E6
:1010100010342734253464340A34003425346434DD
:0210200000349A
:020000040001F9
:0A000E00EC3FFF3B9F3FFF3FFF3F29
:00000001FF
