:10000000803102288731FD2F87314B2F87315E2FBA
:100010008731632F8731772F8731A22F8731C62F02
:100BE2007E01C301400112109210121192110800ED
:100BF2008631C926853186310B26853186312026FC
:100C020008007E01C30140011214921412159215BC
:100C120012160800623051018D008F0191010230DD
:100C2200930090019201080046018E170E120F30B8
:100C32008E048D018C01013044019E0008000830B1
:100C420042019F0090309D0024309E0019309B008D
:100C52009C010800803045018E001008F0390138EF
:100C620090008F019101FF308D008C014E01901098
:100C72000800410194019501960197019B01990198
:100C82009C0198019A017E0138148430410193003D
:100C92000800400111147E01381441019317131406
:100CA2001318512E0D08F3000C08F20013107308EC
:100CB200F1007208F000080045018E174F019912E9
:100CC2007108F3007008F200F336F20CF336F20CFE
:100CD200720846018D0070080339F2000530F235C2
:100CE200FF3E031D702E72358C0008008531F12500
:100CF200863173080F39F5007508F9007408F6009B
:100D02007308F5000430F700760DF60CF50CF70BBE
:100D1200852E75080F39F8007808FA00740803392F
:100D2200F5007508FB0079088631FC2686317A08C1
:100D32008631FC2686317B088631FC260800863106
:100D42000226863140010D1EA32EF5010D08013940
:100D5200F0000D0CF100F10C710C0139F2000330BE
:100D6200F235890BB12E0D0C890C0139F3000230DA
:100D7200F335890BB92E0D0C01390907730472047E
:100D82007004F4007408F5000D1AC52E75080800E9
:100D920040019701960198017E01B901C401CF017A
:100DA200FF30B800FF30C3007F30CE00FF3040017B
:100DB2009200BF309300FF30910000308B1B013056
:100DC200F0008B1355307D018F00AA308F000F1079
:100DD2001730CB0010307E01A6000930A300553039
:100DE2007D018F00AA308F000F14701CFA2E8B1712
:100DF20008008B130800F2007E01C30140011210AB
:100E020092101211921112160D1A052F013072054D
:100E1200F00017087006FE39700697007236013925
:100E2200F000F00D17087006FD3970069700720881
:100E3200F0000230F036890B1B2F70080139F100E7
:100E4200F10DF10D17087106FB3971069700720852
:100E5200F0000330F036890B2B2F70080139F100B6
:100E6200F10DF10DF10D17087106F73971069700B2
:100E72000D1A0800392F8531F925873186313A2636
:100E8200873186312B2687318631152687314001FD
:100E92001311EA2F0E308631FC2687310230FD0015
:100EA2004530FC00AA30890B542FFC0B542FFD0B4C
:100EB200542F8531F9258731EA2F0E308631FC26F1
:100EC2008731EA2F0E308631FC26873186314A2659
:100ED200873171084001A1007008A0002108F400C8
:100EE2002008F300863177268731EA2F6430F0003C
:100EF2000030F10086315D2687314001A301A40153
:100F02002408803AFC0080307C02031D8A2F2430A2
:100F120023020318EA2F40010E15AF300032890B6D
:100F22008F2F40010E110630FC005A30890B972F8B
:100F3200FC0B972F000001304001A3070030A43DB5
:100F4200812F4001A501A6012608803AFC008030CD
:100F52007C02031DAE2F243025020318EA2F400124
:100F62000E15AF300032890BB32F40010E1106303F
:100F7200FC005A30890BBB2FFC0BBB2F0000013049
:100F82004001A5070030A63DA52F4001A701A801F9
:100F92002808803AFC0080307C02031DD22F2430C6
:100FA20027020318EA2F40010E15AF300032890BD9
:100FB200D72F40010E110630FC005A30890BDF2F6B
:100FC200FC0BDF2F000001304001A7070030A83DD5
:100FD200C92F8631A0268731FC007C084001A2007F
:100FE200400122088400063004020318EA2F8031EF
:0E0FF2000435043E8200EA2F400187313C2F77
:020000040001F9
:0A000E00EC3FFF3B9F3FFF3FFF3F29
:00000001FF
